root@td4-5:/proc/linux_ngknet# tcpdump -i netdev-swp22  -- 102/66
tcpdump: verbose output suppressed, use -v or -vv for full protocol decode
listening on netdev-swp22, link-type EN10MB (Ethernet), capture size 262144 bytes
08:26:10.231170 02:a0:c9:10:20:31 (oui Unknown) > 01:80:c2:00:00:0e (oui Unknown), ethertype 802.1Q (0x8100), length 240:
        0x0000:  b880 1004 0000 0088 0000 4800 0000 0066  ..........H....f
        0x0010:  8c00 0000 0000 0222 0000 0500 1101 0000  ......."........
        0x0020:  3082 0000 0200 0000 0000 0008 0000 6600  0.............f.
        0x0030:  0000 0000 0000 0000 0000 0000 0000 ff0f  ................
        0x0040:  6600 0000 0000 0000 0000 0000 5f5f 4000  f...........__@.
        0x0050:  0000 0000 0000      0180 c200 000e 02a0 c910  ................
        0x0060:  2031 8100 0000 88cc 0207 0400 a0c9 1020  .1..............
        0x0070:  3004 0605 7377 7032 3806 0200 780a 0b74  0...swp28...x..t
        0x0080:  6434 2d36 2d73 3332 6462 0c1f 4172 7263  d4-6-s32db..Arrc
        0x0090:  7573 204f 7065 7261 7469 6e67 2053 7973  us.Operating.Sys
        0x00a0:  7465 6d20 2841 7263 4f53 290e 0400 9c00  tem.(ArcOS).....
        0x00b0:  9010 0c05 010a 1b69 2902 0000 0004 0008  .......i).......
        0x00c0:  0573 7770 3238 fe09 0012 0f03 0300 003a  .swp28.........:
        0x00d0:  9cfe 0900 120f 0102 8000 0016 0000       ..............

root@td4-5:/proc/linux_ngknet# ifconfig netdev-swp10 up
root@td4-5:/proc/linux_ngknet# tcpdump -i netdev-swp10 -Qin   42/2a
tcpdump: verbose output suppressed, use -v or -vv for full protocol decode
listening on netdev-swp10, link-type EN10MB (Ethernet), capture size 262144 bytes
21:57:15.434291 34:ef:b6:41:ef:95 (oui Unknown) > 01:80:c2:00:00:0e (oui Unknown), ethertype 802.1Q (0x8100), length 264:
        0x0000:  b880 1004 0000 00a0 0000 4800 0000 002a  ..........H....*
        0x0010:  a400 0000 0000 0222 0000 0500 1101 0000  ......."........
        0x0020:  3082 0000 0200 0000 0000 0008 0000 2a00  0.............*.
        0x0030:  0000 0000 0000 0000 0000 0000 0000 ff0f  ................
        0x0040:  2a00 0000 0000 0000 0000 0000 5f5f 4000  *...........__@.
        0x0050:  0000 0000 0000     0180 c200 000e 34ef b641  ............4..A
        0x0060:  ef95 8100 0000 88cc 0207 0434 efb6 41ef  ...........4..A.
        0x0070:  9404 0705 7377 7032 7331 0602 0078 0a07  ....swp2s1...x..
        0x0080:  7464 342d 7468 330c 1f41 7272 6375 7320  td4-th3..Arrcus.
        0x0090:  4f70 6572 6174 696e 6720 5379 7374 656d  Operating.System
        0x00a0:  2028 4172 634f 5329 0e04 009c 0090 100c  .(ArcOS)........
        0x00b0:  0501 0a1b 691d 0200 0000 0400 1018 1102  ....i...........
        0x00c0:  0192 0168 0010 0000 0000 0001 0000 0002  ...h............
        0x00d0:  0200 0001 0000 0806 7377 7032 7331 fe09  ........swp2s1..
        0x00e0:  0012 0f03 0100 0000 00fe 0900 120f 0102  ................
        0x00f0:  8000 004d 0000                           ...M..
^C
1 packet captured
1 packet received by filter
0 packets dropped by kernel
root@td4-5:/proc/linux_ngknet#


root@td4-5:/proc/linux_ngknet# tcpdump -i swp10 -xxxx
tcpdump: verbose output suppressed, use -v or -vv for full protocol decode
listening on swp10, link-type EN10MB (Ethernet), capture size 262144 bytes
08:28:08.572008 LLDP, length 142: td4-th3
        0x0000:  0180 c200 000e 34ef b641 ef95 88cc 0207
        0x0010:  0434 efb6 41ef 9404 0705 7377 7032 7331
        0x0020:  0602 0078 0a07 7464 342d 7468 330c 1f41
        0x0030:  7272 6375 7320 4f70 6572 6174 696e 6720
        0x0040:  5379 7374 656d 2028 4172 634f 5329 0e04
        0x0050:  009c 0090 100c 0501 0a1b 691d 0200 0000
        0x0060:  0400 1018 1102 0192 0168 0010 0000 0000
        0x0070:  0001 0000 0002 0200 0000 c300 0806 7377
        0x0080:  7032 7331 fe09 0012 0f03 0100 0000 00fe
        0x0090:  0900 120f 0102 8000 004d 0000
08:28:08.582273 LLDP, length 112: td4-5
        0x0000:  0180 c200 000e e8c5 7ab1 2724 88cc 0207
        0x0010:  04e8 c57a b127 2304 0605 7377 7031 3006
        0x0020:  0200 780a 0574 6434 2d35 0c1f 4172 7263
        0x0030:  7573 204f 7065 7261 7469 6e67 2053 7973
        0x0040:  7465 6d20 2841 7263 4f53 290e 0400 9c00
        0x0050:  1010 0c05 010a 1b69 2702 0000 0004 0008
        0x0060:  0573 7770 3130 fe09 0012 0f03 0100 0000
        0x0070:  00fe 0900 120f 0102 8000 004d 0000
^C
2 packets captured

arc-mac-learn interface
========================
packet ingress on port- 80 WITH MAC MOVE

13:20:00.568213 00:00:00:00:00:03 (oui Ethernet) > ab:cd:ab:cd:ab:cd (oui Unknown), ethertype 802.1Q (0x8100), length 259:
        0x0000:  b880 1004 0000 009b 0000 4800 0000 2850  ..........H...(P
        0x0010:  9f00 0000 0000 2a00 0000 0500 3101 0000  ......*.....1...
        0x0020:  3080 0000 0200 0000 0000 0208 0000 5000  0.............P.
        0x0030:  0000 0000 0000 0000 0000 0000 0000 3200  ..............2.
        0x0040:  5000 0000 0000 0000 0000 0000 0202 0400  P...............
        0x0050:  0000 0000 0000 abcd abcd abcd 0000 0000  ................
        0x0060:  0003 8100 0032 0089 db34 a17f 0000 0000  .....2...4......
        0x0070:  5f60 5eac 6364 62b0 6768 66b4 6b6c 6ab8  _`^.cdb.ghf.klj.
        0x0080:  6f70 6ebc 7374 72c0 7778 76c4 7b7c 7ac8  opn.str.wxv.{|z.
        0x0090:  7f80 7ecc 8384 82d0 8788 86d4 8b8c 8ad8  ..~.............
        0x00a0:  8f90 8edc 9394 92e0 9798 96e4 9b9c 9ae8  ................
        0x00b0:  9fa0 9eec a3a4 a2f0 a7a8 a6f4 abac aaf8  ................
        0x00c0:  afb0 aefc b3b4 b300 b7b8 b704 bbbc bb08  ................
        0x00d0:  bfc0 bf0c c3c4 c310 c7c8 c714 cbcc cb18  ................
        0x00e0:  cfd0 cf1c d3d4 d320 d7d8 d724 dbdc db28  ...........$...(
        0x00f0:  df
packet ingress on port- 82 - 52 WITH MAC MOVE

13:24:12.516380 00:00:00:00:00:01 (oui Ethernet) > ab:cd:ab:cd:ab:cd (oui Unknown), ethertype 802.1Q (0x8100), length 259:
        0x0000:  b880 1004 0000 009b 0000 4800 0000 2852  ..........H...(R
        0x0010:  9f00 0000 0000 2a00 0000 0500 3101 0000  ......*.....1...
        0x0020:  3080 0000 0200 0000 0000 0208 0000 5200  0.............R.
        0x0030:  0000 0000 0000 0000 0000 0000 0000 3200  ..............2.
        0x0040:  5200 0000 0000 0000 0000 0000 0202 0400  R...............
        0x0050:  0000 0000 0000 abcd abcd abcd 0000 0000  ................
        0x0060:  0001 8100 0032 0089 db34 a17f 0000 0000  .....2...4......
        0x0070:  c3c4 c2ac c7c8 c6b0 cbcc cab4 cfd0 ceb8  ................
        0x0080:  d3d4 d2bc d7d8 d6c0 dbdc dac4 dfe0 dec8  ................
        0x0090:  e3e4 e2cc e7e8 e6d0 ebec ead4 eff0 eed8  ................
        0x00a0:  f3f4 f2dc f7f8 f6e0 fbfc fae4 0000 fee8  ................
        0x00b0:  0405 02ec 0809 06f0 0c0d 0af4 1011 0ef8  ................
        0x00c0:  1415 12fc 1819 1700 1c1d 1b04 2021 1f08  .............!..
        0x00d0:  2425 230c 2829 2710 2c2d 2b14 3031 2f18  $%#.()'.,-+.01/.
        0x00e0:  3435 331c 3839 3720 3c3d 3b24 4041 3f28  453.897.<=;$@A?(
        0x00f0:  44


Packet ingress on port 82 without macmove.
18:21:23.759067 00:00:00:00:00:01 (oui Ethernet) > ab:cd:ab:cd:ab:cd (oui Unknown), ethertype 802.1Q (0x8100), length 168:
                                diff                52=port
        0x0000:  b880 1004 0000 0040 0000 4800 0000 2852  .......@..H...(R
            4400 = looks like pkt length
        0x0010:  4400 0000 0000 2a00 0000 0500 3101 0000  D.....*.....1...

        0x0020:  3080 0000 0200 0000 0000 0308 0000 5200  0.............R.
        0x0030:  0000 0000 0000 0000 0000 0000 0000 3200  ..............2.
        0x0040:  5200 0000 0000 0000 0000 0000 0202 0400  R...............
        0x0050:  0000 0000 0000 abcd abcd abcd 0000 0000  ................
        0x0060:  0001 8100 0032 002e 0000 0000 0000 0000  .....2..........
        0x0070:  c0c1 c154 c4c5 c558 c8c9 c95c cccd cd60  ...T...X...\...`
        0x0080:  d0d1 d164 d4d5 d568 d8d9 d96c dcdd dd70  ...d...h...l...p
        0x0090:  e0e1 e174 e4e5


3080 0000 0200 0000 0000 0208 0000 5200 0000 0000 0000

0x00008030 0x00000002 0x08020000 0x00520000 0x00000000 0x0000
0x00480100 0x00000000 0x00500a22 0x01010005 0x81300000

3080 0000 0200 0000 0000 0208 0000 5200 0000 0000 0000

0000 0000 0000 0000 3200 5200 0000 0000 0000 0000 0000 0202 0400 0000 0000 0000

3080 0000 0200 0000 0000 0208 0000 5200
0000 0000 0000 0000 0000 0000 0000 3200
5200 0000 0000 0000 0000 0000 0202 0400
0000 0000 0000 abcd abcd abcd 0000 0000
