tx 1 pbm=ce0 vlan=1 dm=0x1 sm=0x2

08:27:56.204921 00:00:00:00:00:02 (oui Ethernet) > 00:00:00:00:00:01 (oui Ethernet), ethertype Unknown (0xde08), length 160:
        0x0000:  0000 0000 0001 0000 0000 0002 de08 b770
        0x0010:  1004 0040 0000 0000 0000 0000 0000 0000
        0x0020:  fb00 0000 0021 0000 0800 0000 0001 0000
        0x0030:  0000 0000 0000 0008 00c0 4421 0010 0000
        0x0040:  0000 0000 0000 0000 0000 0002 0007 0000
        0x0050:  0480 0000 0000 3401 0000 0000 8003 0084
        0x0060:  0000 0000 0001 0000 0000 0002 8100 0001
        0x0070:  002e 0000 0000 0000 0000 1234 5681 1234
        0x0080:  5682 1234 5683 1234 5684 1234 5685 1234
        0x0090:  5686 1234 5687 1234 5688 1234 5689 1234


BCM.0>
BCM.0> trunk show
trunk show
Device supports 2112 trunk groups:
  2048 front panel trunks (0..2047), 256 ports/trunk
  64 fabric trunks (2048..2111), 64 ports/trunk
trunk 10: (front panel, 1 ports)=ce0 dlf=any mc=any ipmc=any psc=unknown (0x0)
BCM.0>
BCM.0> ps ce0
ps ce0
                 ena/        speed/ link auto    STP                  lrn  inter  max   cut   loop
           port  link  Lns   duplex scan neg?   state   pause  discrd ops   faceframe  thru?  back   encap
       ce0( 33)  up     4  100G  FD   SW  No   Forward          None   FA    CR4 9000   Yes   MAC    IEEE
BCM.0>

Without trunk port

08:29:26.149634 00:00:00:00:00:02 (oui Ethernet) > 00:00:00:00:00:01 (oui Ethernet), ethertype Unknown (0xde08), length 160:
        0x0000:  0000 0000 0001 0000 0000 0002 de08 b770
        0x0010:  1004 0040 0000 0000 0000 0000 0000 0000
        0x0020:  fb00 0000 0021 0000 0800 0000 0001 0000
        0x0030:  0000 0000 0000 0008 00c0 4421 0010 0000
        0x0040:  0000 0000 0000 0000 0000 0002 0007 0000
        0x0050:  0480 0000 0000 3401 0000 0000 8003 0084
        0x0060:  0000 0000 0001 0000 0000 0002 8100 0001
        0x0070:  002e 0000 0000 0000 0000 1234 568a 1234
        0x0080:  568b 1234 568c 1234 568d 1234 568e 1234
        0x0090:  568f 1234 5690 1234 5691 1234 5692 1234

trunk Id = 20

08:30:59.285258 00:00:00:00:00:02 (oui Ethernet) > 00:00:00:00:00:01 (oui Ethernet), ethertype Unknown (0xde08), length 160:
        0x0000:  0000 0000 0001 0000 0000 0002 de08 b770
        0x0010:  1004 0040 0000 0000 0000 0000 0000 0000
        0x0020:  fb00 0000 0021 0000 0800 0000 0001 0000
        0x0030:  0000 0000 0000 0008 00c0 4421 0010 0000
        0x0040:  0000 0000 0000 0000 0000 0002 0007 0000
        0x0050:  0480 0000 0000 3401 0000 0000 8003 0084
        0x0060:  0000 0000 0001 0000 0000 0002 8100 0001
        0x0070:  002e 0000 0000 0000 0000 1234 5693 1234
        0x0080:  5694 1234 5695 1234 5696 1234 5697 1234
        0x0090:  5698 1234 5699 1234 569a 1234 569b 1234


comparison
----------

08:29:26.149634 00:00:00:00:00:02 (oui Ethernet) > 00:00:00:00:00:01 (oui Ethernet), ethertype Unknown (0xde08), length 160:
        0x0080:  568b 1234 568c 1234 568d 1234 568e 1234
        0x0090:  568f 1234 5690 1234 5691 1234 5692 1234

trunk Id = 20

08:30:59.285258 00:00:00:00:00:02 (oui Ethernet) > 00:00:00:00:00:01 (oui Ethernet), ethertype Unknown (0xde08), length 160:
        0x0080:  5694 1234 5695 1234 5696 1234 5697 1234
        0x0090:  5698 1234 5699 1234 569a 1234 569b 1234
